:100000000C9432160C945C160C945C160C945C16D2
:100010000C945C160C945C160C945C160C945C1698
:100020000C945C160C9467870C945C160C945C160C
:100030000C945C160C94E8490C945C160C945C16B9
:100040000C945C160C9409440C9497900C945C16D8
:100050000C949C3E0C945C160C945C160C945C16F0
:100060000C945C160C945C160C945C160C945C1648
:100070000C945C160C945C160C945C160C945C1638
:100080000C945C160C945C160C945C1639873C87B7
:100090002F87338753875387408744874A874E8704
:1000A00084AD6AAD6DAD70AD73AD7FAD76AD90AD25
:1000B00079AD7CAD2EBF33BF38BF42BF70BF70BFBC
:1000C0004CBF54BF5CBF66BF4E414E494E49545968
:1000D000494E46CDCCCC3D0AD7233C17B7D1387713
:1000E000CC2B329595E6241FB14F0A000020410029
:1000F00000C84200401C4620BCBE4CCA1B0E5AAE73
:10010000C59D7420746F6F206C6F6E672065787466
:10011000727573696F6E2070726576656E74656452
:100120000A0020636F6C6420657874727573696F60
:100130006E2070726576656E7465640A00536C6536
:1001400065702E2E2E00436C69636B20746F2072D5
:100150006573756D652E2E2E004E6F206D6F766562
:100160002E00456E642066696C65206C6973740AA4
:1001700000426567696E2066696C65206C697374FE
:100180000A004D31323500286E6F2066696C652992
:10019000005344207072696E74696E6720627974CE
:1001A0006520004E6F74205344207072696E74692C
:1001B0006E670A0043757272656E742066696C65BD
:1001C0003A200046696C652064656C657465643A24
:1001D0000044656C6574696F6E206661696C656466
:1001E0002C2046696C653A20002569730025696DED
:1001F00020256973002569682025696D20256973AC
:1002000000256964202569682025696D20256973AA
:100210000025697920256964202569682025696D94
:1002200020256973005072696E742074696D653A97
:1002300020004B494C4C45442E20006F6B0020574A
:100240003A004520436F6F6C696E672E2E2E004575
:100250002048656174696E672E2E2E0020573A0083
:1002600042656420636F6F6C696E672E2E2E0042AC
:1002700065642068656174696E672E2E2E00576F65
:100280006F64486F757365203344204F66662E0097
:100290004649524D574152455F4E414D453A4D6199
:1002A000726C696E20544833442055312E52322EE0
:1002B000316420534F555243455F434F44455F558A
:1002C000524C3A2050524F544F434F4C5F56455278
:1002D00053494F4E3A312E30204D414348494E4507
:1002E0005F545950453A576F6F64486F7573652076
:1002F00033442045585452554445525F434F554E60
:10030000543A3120555549443A0A002F2F20007A9B
:100310005F6D696E3A2000795F6D696E3A200078F2
:100320005F6D696E3A20005265706F7274696E6716
:1003300020656E6473746F70207374617475730AD2
:1003400000205400205200416363656C6572617443
:10035000696F6E3A20500020466C6F773A2000207B
:10036000643A0020693A0020703A00496E76616C68
:1003700069642065787472756465720A0023646527
:1003800066696E652044454641554C545F4B642078
:100390000023646566696E652044454641554C54AA
:1003A0005F4B69200023646566696E65204445469D
:1003B00041554C545F4B70200050494420417574A6
:1003C0006F74756E652066696E6973686564212057
:1003D00050757420746865206C617374204B702CA8
:1003E000204B6920616E64204B6420636F6E7374D0
:1003F000616E74732066726F6D2062656C6F77201A
:10040000696E746F20436F6E666967757261746997
:100410006F6E2E680A00504944204175746F7475E0
:100420006E65206661696C6564212074696D656F15
:1004300075740A00453120544845524D414C2052B4
:10044000554E4157415900546865726D616C205298
:10045000756E617761790045312048656174696E18
:1004600067206661696C65640048656174696E67E0
:10047000206661696C656400504944204175746F61
:1004800074756E65206661696C6564212054656DC4
:10049000706572617475726520746F6F206869672A
:1004A000680A00204B643A2000204B693A20002063
:1004B0004B703A20000A20436C61737369632050CB
:1004C0004944200A002054753A2000204B753A20F8
:1004D00000206D61783A2000206D696E3A2000207E
:1004E000643A200020626961733A20005049442038
:1004F0004175746F74756E65206661696C65642101
:1005000020426164206578747275646572206E752E
:100510006D6265720A00504944204175746F7475AC
:100520006E652073746172740A004E6F206361738C
:1005300065206C696768740A00454550524F4D202C
:100540004F4B0A00496E736572742066696C616D69
:10055000656E7420616E64207072657373206275BD
:1005600074746F6E0A0050726573732062757474D0
:100570006F6E20746F2068656174206E6F7A7A6C7C
:10058000650A00496E736572742066696C616D65F9
:100590006E7420616E64207072657373206275746E
:1005A000746F6E20286F72204D313038290A004157
:1005B00063746976652045787472756465723A2053
:1005C00000496E76616C6964206578747275646543
:1005D000720A004E6F20436865636B73756D2077F8
:1005E000697468206C696E65206E756D6265722C29
:1005F000204C617374204C696E653A20004B494C65
:100600004C45442E200053544F505045442E20005A
:100610005072696E7465722073746F7070656420B7
:1006200064756520746F206572726F72732E204638
:10063000697820746865206572726F7220616E64DB
:1006400020757365204D39393920746F20726573B8
:10065000746172742E202854656D706572617475B2
:1006600072652069732072657365742E20536574FA
:10067000206974206166746572207265737461729A
:1006800074696E67290A004E6F20436865636B7357
:10069000756D2077697468206C696E65206E756D64
:1006A0006265722C204C617374204C696E653A202F
:1006B00000636865636B73756D206D69736D61743C
:1006C00063682C204C617374204C696E653A20007D
:1006D0004C696E65204E756D626572206973206E7F
:1006E0006F74204C617374204C696E65204E756D7B
:1006F0006265722B312C204C617374204C696E65DD
:100700003A20004D313130004D33310053442072D6
:10071000656164206572726F720A00446F6E6520B5
:100720007072696E74696E672066696C650A002074
:10073000496E76616C69642065787472756465725F
:100740002000000000000000000000000000000089
:100750006B4300006B4300007A434D3630303A2043
:10076000546F6F20636F6C6400486F74656E642013
:10077000746F6F20636F6C640A00205A3A0020592E
:100780003A0020436F756E7420583A0020453A00B5
:10079000205A3A0020593A00583A0070012C019032
:1007A000012701B0012201C0011D01F00118011053
:1007B00002130130020E016002090190020401C01F
:1007C00002FF000003FA004003F5008003F000D0B0
:1007D00003EB002004E6007004E100E004DC0040CC
:1007E00005D700C005D2004006CD00D006C8008065
:1007F00007C3003008BE00F008B900C009B400B05B
:100800000AAF00B00BAA00D00CA500000EA000504B
:100810000F9B00C01096005012910000148C00C075
:10082000158700B0178200B0197D00D01B7800003A
:100830001E730040206E0090226900F02464004086
:10084000275F0090295A00E02B5500102E50002001
:10085000304B0010324600E033410090353C001030
:1008600037370070383200A0392D00B03A2800A088
:100870003B2300603C1E00103D1900903D14001009
:100880003E0F00703E0A00C03E0500003F000040E1
:100890003FFBFF803FF6FFC03FF1FF45312045722F
:1008A000723A204D415854454D50004572723A20DD
:1008B0004D415854454D5020424544004D415854F7
:1008C000454D5020747269676765726564004531F3
:1008D000204572723A204D494E54454D50004572A4
:1008E000723A204D494E54454D5020424544004DEA
:1008F000494E54454D50207472696767657265644E
:1009000000202F002042403A0020403A0024F4D436
:100910003050C38E20C2A24017828B7011127A9180
:100920000D816CD90AA861E108C758660761514377
:10093000061E4B5D05C145A7041A411104093D98E7
:1009400003713931034036DB0265339102D43054F0
:1009500002802E1D02632CEE01752AC501B028A06D
:1009600001102781018F2564012B244B01E02234E3
:1009700001AC211F018D200D01801FFC00841EEDA4
:1009800000971DDF00B81CD200E61BC600201BBC70
:1009900000641AB200B219A8000A19A0006A1899D6
:1009A00000D117910040178B00B516840031167ED8
:1009B00000B31579003A157300C7146F0058146A14
:1009C00000EE1366008813630025135E00C7125BF8
:1009D000006C12570015125400C111510070114FD4
:1009E0000021114B00D61049008D104700461044DD
:1009F0000002104200C00F4000800F3E00420F3C3A
:100A000000060F3B00CB0E3800930E37005C0E350E
:100A100000270E3400F30D3200C10D3100900D306F
:100A200000600D2E00320D2D00050D2C00D90C2B71
:100A300000AE0C2900850C29005C0C2700350C2722
:100A4000000E0C2600E80B2400C40B2400A00B238E
:100A5000007D0B23005A0B2100390B2100180B20BD
:100A600000F80A1F00D90A1E00BB0A1E009D0A1DBD
:100A700000800A1D00630A1C00470A1B002C0A1B89
:100A800000110A1A00F7091A00DD091900C4091932
:100A900000AB091900920917007B091800630917B8
:100AA000004C09160036091600200916000A09151F
:100AB00000F5081500E0081400CC081400B808146C
:100AC00000A4081400900813007D0812006B08139E
:100AD00000580812004608120034081100230811BB
:100AE000001208110001081100F0071000E00710C3
:100AF00000D0071000C0071000B0070F00A10710BA
:100B00000091070E0083070F0074070F0065070EA2
:100B10000057070E0049070E003B070D002E070E79
:100B20000020070D0013070D0006070D00F9060C45
:100B300000ED060D00E0060C00D4060C00C8060C03
:100B400000BC060C00B0060C00A4060B0099060CB5
:100B5000008D060B0082060B0077060B006C060B5F
:100B60000061060A0057060B004C060A0042060AFE
:100B70000038060A002E060A0024060A001A060A91
:100B8000001006090007060A00FD050900F4050922
:100B900000EB050900E2050900D9050900D00509A7
:100BA00000C7050900BE050900B5050800AD050828
:100BB00000A50509009C050800940508008C05089F
:100BC00000840508007C050800740508006C050712
:100BD00000650508005D050700560508004E05077D
:100BE00000470507004005080038050700310507E4
:100BF000002A050700230507001C05060016050747
:100C0000000F0507000805060002050700FB0406A3
:100C100000F5040700EE040600E8040600E20407FD
:100C200000DB040600D5040600CF040600C9040654
:100C300000C3040600BD040600B7040600B10405A5
:100C400000AC040600A6040600A00405009B0406F0
:100C50000095040500900406008A0405008504053B
:100C600000800406007A0405007504050070040580
:100C7000006B04050066040500610405005C0405C2
:100C80000057040500520405004D04050048040502
:100C900000430405003E0404003A04050035040541
:100CA00000300404002C040500270404002304057C
:100CB000001E0404001A04040016040500110404B4
:100CC000000D0404000904050004040400000404E9
:100CD00000FC030400F8030400F4030400F0030420
:100CE00000EC030400E8030400E4030400E0030450
:100CF00000DC030400D8030400D4030400D0030480
:100D000000CC030400C8030300C503030024F4045B
:100D1000D9201BC40C5C0E9804C4095F02650771DE
:100D200001F405F900FB04B30048048700C103691E
:100D3000005803550003034500BE023A0084023107
:100D40000053022A002902250004022000E4011CAD
:100D500000C8011900AF01170098011400840113A5
:100D600000710110006101100051010E0043010DDE
:100D70000036010B002B010B0020010B00150109AF
:100D8000000C01090003010800FB000800F3000843
:100D900000EB000700E4000600DE000600D80006B5
:100DA00000D2000600CC000500C7000500C2000507
:100DB00000BD000400B9000400B5000400B1000447
:100DC00000AD000400A9000400A5000300A2000378
:100DD000009F0004009B00030098000300950002A0
:100DE0000093000300900003008D0002008B0003BD
:100DF00000880002008600020084000300810002D7
:100E0000007F0002007D0002007B000200790002EA
:100E100000770001007600020074000200720001F9
:100E200000710002006F0002006D0001006C000202
:100E3000006A00010069000200670001006600010D
:100E40000065000100640002006200010061000111
:100E500000600001005F0002005D0001005C000115
:100E6000005B0001005A0001005900010058000118
:100E70000057000100560001005500010054000118
:100E80000053000000530001005200010051000116
:100E900000500001004F0001004E0000004E000114
:100EA000004D0001004C0001004B0000004B000110
:100EB000004A00010049000100480000004800010C
:100EC0000047000100460000004600010045000008
:100ED0000045000100440001004300000043000100
:100EE00000420000004200010041000000410001FA
:100EF00000400001003F0000003F0001003E0000F4
:100F0000003E0001003D0000003D0001003C0000EB
:100F1000003C0000003C0001003B0000003B0001E1
:100F2000003A0000003A00010039000000390001D9
:100F300000380000003800000038000100370000D1
:100F400000370001003600000036000000360001C6
:100F500000350000003500000035000100340000BD
:100F600000340000003400010033000000330000B2
:100F700000330001003200000032000000320001A6
:100F8000003100000031000000310001003000009D
:100F90000030000000300001002F0000002F000092
:100FA000002F0000002F0001002E0000002E000086
:100FB000002E0001002D0000002D0000002D00007B
:100FC000002D0001002C0000002C0000002C00006F
:100FD000002C0001002B0000002B0000002B000063
:100FE000002B0001002A0000002A0000002A000057
:100FF000002A00010029000000290000002900004B
:10100000002900000029000100280000002800003D
:101010000028000000280000002800010027000030
:101020000027000000270000002700000027000123
:101030000026000000260000002600000026000018
:10104000002600010025000000250000002500000A
:1010500000250000002500000025000100240000FC
:1010600000240000002400000024000000240001EF
:1010700000230000002300000023000000230000E4
:1010800000230000002300000023000100220000D4
:1010900000220000002200000022000000220000C8
:1010A00000220001002100000021000000210000BA
:1010B00000210000002100000021000000210001AB
:1010C00000200000002000000020000000200000A0
:1010D000002000000020000000200000002000018F
:1010E000001F0000001F0000001F0000001F000084
:1010F000001F0000001F0000001F0001001E000074
:10110000001E0000001E0000001E0000000437004A
:10111000001E290000511B0000581000001009009B
:1011200000CC040000780200004101000062656408
:101130000A002C2073797374656D2073746F70705E
:10114000656421204865617465725F49443A2000F6
:101150004265642068656174696E67206661696CC8
:1011600065640048656174696E67206661696C65D5
:10117000640045312048656174696E672066616965
:101180006C65640048656174696E67206661696CAE
:101190006564001000C90210012C01400122017099
:1011A000011801B0010E01F00104015002FA00B073
:1011B00002F0003003E600D003DC009004D200709F
:1011C00005C800A006BE000008B400B009AA00D0FF
:1011D0000BA000600E960060118C000015820020AC
:1011E000197800C01D6E00A0226400B0275A00903C
:1011F0002C500000314600E0343C001038320090A2
:101200003A2800603C1E00A03D1400803E0A0020E9
:101210003F00004D313235004D3234005072696E5E
:10122000742061626F72746564004D3231004E6FDC
:101230002053442063617264004368616E676520D7
:1012400053442063617264004D3231005072696E04
:10125000742066726F6D2053440053746F70207059
:1012600072696E7400526573756D65207072696E77
:101270007400496E69742E205344206361726400C7
:101280005061757365207072696E7400436F6E747F
:10129000726F6C00507265706172650054756E6596
:1012A00000496E666F2073637265656E004261620D
:1012B0007973746570205A004368616E67652066B3
:1012C000696C616D656E74004368616E6765206668
:1012D000696C616D656E74004D36303020423000AF
:1012E0004261627973746570205A00466C6F7700B2
:1012F000466C6F770046616E2073706565640046CA
:10130000616E2073706565640042656400426564C7
:10131000004E6F7A7A6C65004E6F7A7A6C65005376
:1013200070656564005370656564004D61696E00A9
:101330005072656865617420504C412042656400BC
:101340005072656865617420504C4120456E6400A0
:101350005072656865617420504C41005072657030
:101360006172650050726568656174204142532066
:101370004265640050726568656174204142532083
:10138000456E640050726568656174204142530087
:1013900050726570617265004261636B004E6578E2
:1013A0007420506F696E740057726974696E67209B
:1013B000746F2066696C653A20006F70656E2066F8
:1013C00061696C65642C2046696C653A20006F7019
:1013D000656E206661696C65642C2046696C653AAF
:1013E000200046696C652073656C65637465640AEA
:1013F000002053697A653A200046696C65206F7059
:10140000656E65643A20002066696C653A20006468
:101410006F696E67006672657368004E6F772000B3
:10142000454E4420535542524F5554494E450A00AB
:101430002220706F73002220706172656E743A22F0
:1014400000535542524F5554494E452043414C4C50
:10145000207461726765743A22004B494C4C4544D4
:101460002E2000747279696E6720746F2063616C3E
:101470006C207375622D67636F64652066696C65A7
:1014800073207769746820746F6F206D616E7920A6
:101490006C6576656C732E204D4158206C657665C1
:1014A0006C2069733A004572726F723A0043616E44
:1014B0006E6F74206F70656E207375626469722040
:1014C000006563686F3A00453120544845524D41EC
:1014D0004C2052554E4157415900424544205448F2
:1014E00045524D414C2052554E4157415900546888
:1014F00065726D616C2052756E61776179000000D4
:101500002200250028002B000000210024002700D5
:101510002A00020202020202020204040404040479
:101520000404030303030303030301010101010195
:10153000010101020408102040800102040810206B
:1015400040800102040810204080804020100804E0
:1015500002016F70656E206661696C65642C2046BF
:10156000696C653A200025753A25303275002530C2
:1015700032753A2530327500257564202530327574
:101580003A2530327500202020202020005A0059B2
:10159000002020202000580009200000000000004A
:1015A000000000000000003FFFF00000000000000D
:1015B0000000000000003800700000000000000083
:1015C000000000000030FC300000000000000000BF
:1015D0000000000020FC10000000000000000000DF
:1015E0000000002078100000000000000000000053
:1015F000000020301000000000000000000000008B
:10160000002C00D03FC0000000000000002082003D
:101610002E31D07FE0000000000000001041002FBC
:101620007BD07FE0000000000000001041002F7B15
:10163000D07FE0000000000000002082002E31D0AA
:101640003FC0000000000000004104002C00D03F1B
:10165000C0000000000000008208002030107FE081
:10166000000000000000008208002078107FE000E9
:1016700000000000000041040020FC107FE000009A
:10168000000000000020820030FC301F80000000BD
:10169000000000000000003800700F000000000093
:1016A000000000FFFFC03FFFF00600000000000048
:1016B0000000FFFFC000000000000000000000006C
:1016C000000000003FFFF0000000000000000000EC
:1016D0000000003800700000000000000000000062
:1016E0000000318630000000000000000000000013
:1016F0000023871000000000000000000000000030
:101700002787900000000000000000000000002F6C
:1017100087D00000000000000000000000002F0340
:10172000D03FC000000000000000208200203010E8
:101730007FE0000000000000001041002078107FD2
:10174000E0000000000000001041002078107FE061
:10175000000000000000002082002030103FC00088
:101760000000000000004104002F03D03FC0000033
:1017700000000000008208002F87D07FE0000000FA
:10178000000000008208002787907FE00000000032
:101790000000004104002387107FE00000000000EB
:1017A00000002082003186301F8000000000000011
:1017B000000000003800700F000000000000000072
:1017C000FFFFC03FFFF0060000000000000000FF28
:1017D000FFC0000000576F6F64486F75736520335A
:1017E000442052656164792E005072696E74696E8E
:1017F000672E2E2E005072696E74207061757365AD
:10180000640000060900FE00000000000109000855
:10181000FE000005080806000040F0C88888987897
:1018200010050808060000C0F88888888888F80530
:1018300005050600012030F83020050808060000E4
:101840002070F820202020E00509090600FF207004
:10185000A8A8B8888870200509090600FFE080C0A4
:10186000B0A8283028280509090600FFF8A88888AC
:10187000888888A8F8050A0A0600FE2050505050B3
:1018800088A8A8887003030306000340A040507294
:10189000656865617420504C4100436F6F6C646FE4
:1018A000776E004368616E67652066696C616D657F
:1018B0006E74004368616E67652066696C616D6572
:1018C0006E74004D363030204230004469736162DE
:1018D0006C65207374657070657273004D383400E8
:1018E0004C6576656C20636F726E65727300507222
:1018F00065686561742041425300486F6D65205AE8
:1019000000473238205A00486F6D65205900473231
:1019100038205900486F6D652058004732382058EC
:10192000004175746F20686F6D6500473238004D57
:101930006F76652061786973004D61696E004D6F47
:1019400076652058004D6F76652059004D6F76659D
:10195000205A004578747275646572004D6F766523
:1019600020302E316D6D004D6F766520316D6D002C
:101970004D6F76652031306D6D004D6F766520615D
:10198000786973004578747275646572004D6F767E
:1019900065205A004D6F76652059004D6F766520A1
:1019A00058004578747275646572004D6F766520D5
:1019B0005A004D6F76652059004D6F7665205800AE
:1019C00050726570617265004C6F6164207365745C
:1019D00074696E677300526573746F726520666117
:1019E000696C736166650053746F7265207365740A
:1019F00074696E67730046696C616D656E74004D45
:101A00006F74696F6E0054656D7065726174757284
:101A100065004D61696E00506C656173652072658B
:101A2000736574005052494E5445522048414C54FD
:101A30004544005072696E7465722068616C74650B
:101A4000642E206B696C6C28292063616C6C656462
:101A5000210A00656E7175657565696E67202200E3
:101A60000000000000000000000000000000204214
:101A70000000204200008040000000005761726EAC
:101A8000696E673A20486F6D696E672042756D70A8
:101A90002044697669736F72203C20310A0002028B
:101AA000040000A0400000A0400000004000006BC7
:101AB0004300006B4300007A43FFFFFF7C3C3E5E27
:101AC0002B3D3F2F5B5D3B2C2A225C00486F6D65F0
:101AD0002025732573257320666972737400206650
:101AE000697273740A005A0059005800486F6D6596
:101AF000200020746F6F206C6F6E672065787472A1
:101B00007573696F6E2070726576656E7465640AB0
:101B10000020636F6C6420657874727573696F6EF2
:101B20002070726576656E7465640A0000000001BD
:101B30000200090A0000000004030807000000007A
:101B4000000000000000000000000000024B494CB3
:101B50004C45442E2000202D20496E76616C69642E
:101B6000206578747275646572206E756D62657239
:101B700020210A00FFFFFFFFFFFFFFFFFFFFFFFF26
:101B8000FFFFFFFFFFFFFFFFFFFFFFFFFFFFFFFF65
:101B9000FFFFFFFFFFFFFFFFFFFFFFFFFFFFFFFF55
:101BA000FFFFFFFFFFFFFFFFFFFFFFEFFFFFFFFF55
:101BB000FFFFFFFFFFFFFFFFFFFFFFEFEFFFFFFF55
:101BC000FFFFFFFFFFFFFFFFFFFFFFE7DFFFFFFF5D
:101BD000FFFFFFFFFFFFFFFFFFFFFFE7DFFFFFFF4D
:101BE000FFFFFFFFFFFFFFFFFFFFFFE3DFFFFFFF41
:101BF000FFFFFFFFFFFFFFFFFFFFFFF3CFFFFFFF31
:101C0000FFFFFFFFFFFFFFFFFFFFE1E1CFFFFFFF50
:101C1000FFFFFFFFFFFFFFFFFE78000003DDFFFF78
:101C2000FFFFFFFFFFFFFFFEFF807E0001EEFFFFD3
:101C3000FFFFFFFFFFFFFFFE7DCFFC0000F77FFFF0
:101C4000FFFFFFFFFFFFFFFF8E060000007BBFFFCF
:101C5000FFFFFFFFFFFFFFFFC0000000007DDFFF71
:101C6000FFFFFFFFFFFFFFFFFC01FE00003EE7FF5D
:101C7000FFFFFFFFFFFFFFFFFFFFFC00031F73FFDE
:101C8000FFFFFFFFFFFFFFFFFFFFF800018F81FF56
:101C9000FFFFFFFFFFFFFFFFFFFFE0000083F9FFF3
:101CA000FFFFFFFFFFFFFFFFFFFF00FC0000F0FF53
:101CB000FFFFFFFFFFFFFFFFFFE00FFFC00000FF80
:101CC000FFFFFFFFFFFFFFFFFE03FFFFC00000FF5E
:101CD000FFFFFFFFFFFFFFFFFFFFFFF9000000FF17
:101CE000FFFFFFFFFFFFFFFFFFFFFFFC0007C0FF3D
:101CF000FFFFFFFFFFFFFFFFFFFFFFFF0007E0FF0A
:101D0000FFFFFFFFFFFFFFFFFFFFFFFFE007F1FF08
:101D1000FFFFFFFFFFFFFFFFFFFFFFFFFC07F9FFD4
:101D2000FFFFFFFFFFFFFFFFFFFFFFFFFF03F9FFC5
:101D3000FFFFFFFFFFFFFFFFFFFFFFFFFF83F9FF35
:101D4000FFFFFFFFFFFFFFFFFFFFFFFFFFC3FFFFDF
:101D5000FFFFFFFFFFFFFFFFFFFFFFFFFFE1FFFFB1
:101D6000FFFFFFFFFFFFFFFFFFFFFFFFFFF0BFFFD2
:101D7000FFFFFFFFFFFFFFFFFFFFFFFFFBF83FFF3E
:101D8000FFFFFFFFFFFFFFFFFFFFFFFFF9F83FFF30
:101D9000FFFFFFFFFFFFFFFFFFFFFFFF7EF0FFFFE3
:101DA000FFFFFFFFFFFFFFFFFFFFFFFF8E03FFFFB0
:101DB000FFFFFFFFFFFFFFFFFFFFFFFFE01FFFFF32
:101DC000FFFFFFFFFFFFFFFFFFFFFFFFFFFFFFFF23
:101DD000FFFFFFFFFFFFFFFFFFFFFFFFFFFFFFFF13
:101DE000FFFFFFFFFFFFFFFFFFFFFFFFFFFF7FFF83
:101DF000FFFFFFFFFFFFFFFF00007FFFFFF87FFFF8
:101E0000FFFFFFFFFFFFFFFF80007FFFFFE07FFF7F
:101E1000FFFFFFFFFFFFFFFFC3FCFFFFFFF8FFFF18
:101E2000FFFFFFFFFFFFFFFFC3FCFFFFFFF8FFFF08
:101E3000FFFFFFFFFFFFFFFF87FDFFFFFFF1FFFF3A
:101E4000FFFFFFFFFFFFFFFF87FFFFFFFFF1FFFF28
:101E5000FFFFFFFFFFFFFFFF0FE7F30FFC23FC3F38
:101E6000FFFFFFFFFFFFFFFF0FEF8007F003F01EF4
:101E7000007FFFFFFFFFFFFE1FCF8187C787C70CD3
:101E8000007FFFFFFFFFFFFE001FC7C78FC79F0F29
:101E90000CFFFFFFFFFFFFFE001F878F1F8F1F0F2D
:101EA0001FFFFFFFFFFFFFFC3F9F8F8F1F8E001E56
:101EB0003FFFFFFFFFFFFFFC7F3F0F1E3F1E3FFE68
:101EC0003FFFFFFFFFFFFFF87FFF1F1C3F1C7FFC52
:101ED0007FFFFFFFFFFFFFF8FFFF1E1C7E1C7FFC44
:101EE0007FFFFFFFFFFFFFF0FFCE3E3C7E3C7FB851
:101EF000FFFFFFFFFFFFFFF0FF9E3C387C387E783E
:101F0000FFFFFFFFFFFFFFE1FF3C7C787C783CF1A7
:101F1000FFFFFFFFFFFFFFE1F8387878101801F1AD
:101F2000FFFFFFFFFFFFFF000060203C007C0780F9
:101F30007FFFFFFFFFFFFFFFFFFFFFFE1FFE1FFFF3
:101F4000FFFFFFFFFFFFFFFFFFFFFFFFFFFFFFFFA1
:101F5000FFFFFFFFFFFFFFFFFFFFFFFFFFFFFFFF91
:101F6000FFFFFFFFFFFFFFFFFFFFFFFFFFFFFFFF81
:101F7000FFFFFFFF1FFFFFFFFFFFFF6000000000EC
:101F800001FF400000000000FF8000000000007F13
:101F900083CF00000C303F87FF80000C301F867914
:101FA00080000C000F8C30C7838C30E78C30CFC79B
:101FB000CC31F38C30DCECEC33B98C30D86C6C3336
:101FC000198C30D06C0C33198C30D86C0C33198CC4
:101FD00030DC6C0E3B198C30CF7C079F198C30C7DE
:101FE0007C038F1940000000000002600000000028
:101FF00000061FFFFFFFFFFFF82020506C616E6E90
:10200000657242756666657242797465733A20003E
:102010002046726565204D656D6F72793A200043E8
:102020006F6D70696C65643A2041707220313720A1
:10203000323031390A00207C20417574686F723A61
:10204000202854483344290A0000204C617374202E
:10205000557064617465643A2000544833442055D7
:10206000312E52322E31640A004D61726C696E005D
:1020700020536F6674776172652052657365740AC8
:1020800000205761746368646F67205265736574DC
:102090000A002042726F776E206F7574205265734C
:1020A00065740A002045787465726E616C20526513
:1020B0007365740A00506F77657255700A00737407
:1020C0006172740A006175746F25692E670065720C
:1020D000726F722077726974696E6720746F206600
:1020E000696C650A00456E6473746F7073202563B4
:1020F00020256320256320256300205A3A002059BB
:102100003A0020583A00656E6473746F70732068EB
:1021100069743A2000446F6E6520736176696E675A
:102120002066696C652E0A004D3239005075726761
:1021300065206D6F726500436F6E74696E75650022
:10214000524553554D45204F5054494F4E533A0038
:1021500020204E6F7A7A6C653A20006368616E6762
:1021600065006F66207468652066696C616D656ED8
:1021700074005761697420666F72207374617274A1
:102180000020204E6F7A7A6C653A20002000666944
:102190006C616D656E7420756E6C6F616400576163
:1021A000697420666F720020204E6F7A7A6C653AEF
:1021B00020002000506C6561736520776169742E82
:1021C0002E2E0048656174696E67206E6F7A7A6C96
:1021D000650020204E6F7A7A6C653A2000200068F6
:1021E000656174206E6F7A7A6C652E00507265732B
:1021F0007320627574746F6E20746F0020204E6FB0
:102200007A7A6C653A2000746F20636F6E74696E21
:1022100075652E2E2E00616E6420707265737320BA
:10222000627574746F6E00496E73657274206669AE
:102230006C616D656E740020204E6F7A7A6C653A21
:102240002000200066696C616D656E74206C6F61A2
:1022500064005761697420666F720020204E6F7AA7
:102260007A6C653A2000200066696C616D656E7459
:10227000207075726765005761697420666F72001F
:10228000746F20726573756D65005761697420669F
:102290006F72207072696E740000060900FE0701FB
:1022A000920321207FFF07FF07FF000000060000C8
:1022B0000107070602008080808080008003020200
:1022C000060105A0A00507070600005050F850F8C9
:1022D00050500507070600002078A07028F0200560
:1022E0000707060000C0C810204098180507070619
:1022F00000006090A040A89068020303060104C09B
:1023000040800307070601002040808080402003B2
:1023100007070601008040202020408005050506B3
:10232000000120A870A8200505050600012020F85E
:1023300020200203030602FFC040800501010600C1
:1023400003F8020202060200C0C0050505060001EE
:1023500008102040800507070600007088888888DC
:10236000887003070706010040C040404040E00578
:102370000707060000708808708080F805070706C8
:102380000000F81020100808F005070706000010EC
:10239000305090F81010050707060000F880F0088C
:1023A000088870050707060000708080F088887034
:1023B000050707060000F808102020202005070761
:1023C000060000708888708888700507070600007E
:1023D00070888878080870020505060200C0C000F1
:1023E000C0C00206060602FFC0C000C0408004074D
:1023F000070600001020408040201005030306005F
:1024000002F800F804070706010080402010204071
:1024100080050707060000708808102000200507C7
:102420000706000070880868A8A87005070706005E
:1024300000708888F8888888050707060000F088FB
:1024400088F08888F0050707060000708880808083
:102450008870050707060000F08888888888F005DE
:102460000707060000F88080F08080F8050707065F
:102470000000F88080F0808080050707060000706B
:102480008880B8888870050707060000888888F863
:10249000888888010707060200808080808080800D
:1024A0000507070600003810101010906005070798
:1024B0000600008890A0C0A09088050707060000CD
:1024C000808080808080F805070706000088D8A8F3
:1024D000888888880507070600008888C8A8988823
:1024E00088050707060000708888888888700507B7
:1024F00007060000F08888F0808080050707060046
:102500000070888888A89068050707060000F08892
:1025100088F0A09088050707060000788080700882
:1025200008F0050707060000F820202020202005DD
:1025300007070600008888888888887005070706CE
:1025400000008888888888502005070706000088D2
:1025500088888888A85005070706000088885020CA
:1025600050888805070706000088888850202020AA
:10257000050707060000F80810204080F803070749
:10258000060100E08080808080E0050505060001EE
:102590008040201008030707060100E020202020CB
:1025A00020E0050303060004205088050101060011
:1025B00000F802020206020580400505050600003B
:1025C00070087888780507070600008080B0C88802
:1025D00088F00505050600007080808870050707F3
:1025E0000600000808689888887805050506000038
:1025F0007088F880700507070600003048E040400A
:1026000040400506060600FF7088887808700507B8
:10261000070600008080B0C8888888010707060286
:1026200000800080808080800308080601FF200071
:1026300020202020A040040707060000808090A0F2
:10264000C0A090030707060100C04040404040E0A2
:10265000050505060000D0A8A8A8A80505050600E0
:1026600000B0C8888888050505060000708888883D
:10267000700506060600FFF08888F08080050606D3
:102680000600FF788888780808050505060000B070
:10269000C880808005050506000070807008F00481
:1026A00007070600004040E04040403005050506B1
:1026B00000008888889868050505060000888888D5
:1026C00050200505050600008888A8A850050505C6
:1026D00006000088502050880506060600FF8888FE
:1026E00088780870050505060000F8102040F803FA
:1026F00007070601002040408040402001070706F0
:1027000002008080808080808003070706010080AF
:102710004040204040800502020600026890000010
:102720000006000048617264636F6465642044655C
:102730006661756C742053657474696E6773204CA0
:102740006F616465640A00E8030000E80300006448
:10275000000000881300000000FA430000FA430064
:10276000007041000048420000A0420000A042006A
:1027700000C8430000BA4220286D6D2900204400A3
:1027800020490020204D3330312050005049442052
:1027900073657474696E67733A0A00204500205AA5
:1027A0000020590020580020540020530020204DC4
:1027B00032303520420020453C6D61785F655F6AAC
:1027C00065726B3E0020583C6D61785F785F6A658A
:1027D000726B3E20593C6D61785F795F6A65726B00
:1027E0003E205A3C6D61785F7A5F6A65726B3E008D
:1027F000416476616E6365643A20423C6D696E5F48
:102800007365676D656E745F74696D655F75733E42
:1028100020533C6D696E5F66656564726174653EE8
:1028200020543C6D696E5F74726176656C5F66659D
:102830006564726174653E002054002052002020BF
:102840004D323034205000416363656C65726174B1
:10285000696F6E2028756E6974732F7332293A2060
:10286000503C7072696E745F616363656C3E2052A8
:102870003C726574726163745F616363656C3E2072
:10288000543C74726176656C5F616363656C3E0A8B
:1028900000204500205A0020590020204D323031C0
:1028A0002058004D6178696D756D20416363656CDA
:1028B00065726174696F6E2028756E6974732F7309
:1028C00032293A0A00204500205A002059002020D1
:1028D0004D3230332058004D6178696D756D20663A
:1028E00065656472617465732028756E6974732FF1
:1028F00073293A0A00204500205A00205900202060
:102900004D39322058005374657073207065722001
:10291000756E69743A0A0020204D31343920432005
:102920003B20556E69747320696E2043656C736932
:1029300075730A002020473231202020203B0048B8
:102940006F6D696E67206661696C6564004545500E
:10295000524F4D206461746173697A6520657272AB
:102960006F722E0A00290A002062797465733B2079
:10297000637263200053657474696E6773205374C7
:102980006F726564202800290A00206279746573DB
:102990003B2063726320002073746F726564207340
:1029A000657474696E6773207265747269657665A3
:1029B00064202800202863616C63756C6174656411
:1029C00029210A0020213D2000454550524F4D202D
:1029D000435243206D69736D61746368202D202814
:1029E00073746F7265642920002053697A653A20F8
:1029F00000496E6465783A2000204D61726C696E02
:102A00003D563535290A0028454550524F4D3D0069
:102A1000454550524F4D2076657273696F6E206D3B
:102A200069736D6174636820004D3234004D323338
:102A300020257300556E6B6E6F776E20636F6D6D22
:102A4000616E643A202200496E7365727420666973
:102A50006C616D656E7420616E6420707265737355
:102A600020627574746F6E20286F72204D3130387B
:102A7000290A00486F74656E6420746F6F20636F5D
:102A80006C640A0053442063617264206F6B0A0017
:102A90006F70656E526F6F74206661696C65640A51
:102AA00000766F6C756D652E696E6974206661695C
:102AB0006C65640A00534420696E6974206661691C
:102AC0006C0A004D333033205531204525692053A1
:102AD000256900504944204175746F74756E650016
:102AE000504944204175746F74756E6500504944B7
:102AF0002D44005049442D44005049442D49005074
:102B000049442D49005049442D50005049442D500E
:102B10000046616E2073706565640046616E2073C7
:102B2000706565640042656400426564004E6F7ABA
:102B30007A6C65004E6F7A7A6C6500436F6E7472C2
:102B40006F6C00436F6E74726F6C00436F6E7472C3
:102B50006F6C0043616E6E6F7420656E74657220D9
:102B60007375626469723A2000022E2E000152656C
:102B70006672657368004D61696E004D36303020B5
:102B8000423020542564004D3730312054256400F4
:102B90004D373032203B2564004D373032205425EC
:102BA00064004368616E67652066696C616D656E7F
:102BB00074005072656865617420504C4100436830
:102BC000616E67652066696C616D656E7400505258
:102BD000494E542050415553454400554E4C4F41A9
:102BE000442046494C414D454E54004C4F414420F1
:102BF00046494C414D454E54004572726F722077E4
:102C0000726974696E6720746F20454550524F4D4C
:102C1000210A00526573656E643A20006F6B006292
:102C20007573793A2070617573656420666F7220E0
:102C3000696E7075740A00627573793A20706175F7
:102C400073656420666F7220757365720A00627521
:102C500073793A2070726F63657373696E670A00E7
:102C600034C225C311241FBECFEFD0E4DEBFCDBFD9
:102C700012E0A0E0B1E0E8E8F9EA01E00BBF02C031
:102C800007900D92A035B107D9F722E1A0E5B2E097
:102C900001C01D92A03EB207E1F716E1C1E3D6E103
:102CA00004C02197FE010E9422D4C033D107C9F786
:102CB0000E9446C30C94B7D40C9400002F923F920C
:102CC0004F925F926F927F928F929F92AF92BF923C
:102CD000CF92DF92EF92FF920F931F93CF93DF93E8
:102CE000CDB7DEB7C657D1090FB6F894DEBF0FBE19
:102CF000CDBF11E01093DF1180914F128D3409F494
:102D0000B4C4843511F40C94862A873411F00C94E1
:102D1000CA2A80914D1290914E128B31910509F47F
:102D20004CC24CF497FD9DC48230910514F1049778
:102D300009F404C296C48A35910509F420C424F428
:102D40004C9709F462C28DC48B35910509F41BC4FC
:102D50008C35910509F085C432E4232E31E0332E01
:102D60004AE3C42E48E0D42EE12CF12C00E010E020
:102D700047C480911A01882311F40C94CC2A52E4A0
:102D8000852E51E0952E60EEC62E61E1D62E70EFB5
:102D9000E72E71E1F72EECE1AE2EE8E0BE2E00E06A
:102DA00010E0D4018D914D010E94E037882321F17C
:102DB0000E94AD37F801EA5AFD4F2081211104C06D
:102DC00020915A02222341F0F70120813181428172
:102DD00053810E94D3D10AC00330110539F0D501C7
:102DE0002D913D914D915C910E94D2D1F60160836D
:102DF0007183828393830AC0F70180819181A281CC
:102E0000B381F60180839183A283B3830F5F1F4F49
:102E1000F4E0CF0ED11C24E0E20EF11C34E0A30E4E
:102E2000B11C0430110509F0BCCF86E40E9427389C
:102E30008823C9F00E94AD3720E030E0A9010E944C
:102E400056D3181684F40E94AD3720E030E040E7F6
:102E500052E40E9456D26093000170930101809366
:102E6000020190930301C0902808D0902908E090B7
:102E70002A08F0902B08A70196016091E01170914B
:102E8000E1118091E2119091E3110E94A2CD87FFA0
:102E900008C0C092E011D092E111E092E211F092EC
:102EA000E311C0902C08D0902D08E0902E08F090EF
:102EB0002F08A70196016091E4117091E5118091AE
:102EC000E6119091E7110E94A2CD87FF08C0C09241
:102ED000E411D092E511E092E611F092E711C09072
:102EE0001F01D0902001E0902101F0902201A70164
:102EF00096016091E0117091E1118091E211909141
:102F0000E3110E9456D3181644F4C092E011D092F7
:102F1000E111E092E211F092E311C0902301D09010
:102F20002401E0902501F0902601A701960160910F
:102F3000E4117091E5118091E6119091E7110E94E2
:102F400056D3181644F4C092E411D092E511E092E1
:102F5000E611F092E711C0902701D0902801E0908F
:102F60002901F0902A01A70196016091E811709162
:102F7000E9118091EA119091EB110E9456D3181635
:102F800044F4C092E811D092E911E092EA11F09273
:102F9000EB11C090EC11D090ED11E090EE11F0909B
:102FA000EF112091FC113091FD114091FE115091D3
:102FB000FF11C701B6010E94A2CD882309F486C083
:102FC0006091C50A7091C60A8091C70A9091C80A9B
:102FD0000E94C8D26837710504F5C092FC11D092E6
:102FE000FD11E092FE11F092FF11E1ECF4E1849109
:102FF0008F010F5F1F4F882321F00E94A638F80130
:10300000F6CFE2E2F1E084918F010F5F1F4F88233A
:1030100021F00E94A638F801F6CF8090EC11909034
:10302000ED11A090EE11B090EF112091FC113091B4
:10303000FD114091FE115091FF11C501B4010E9494
:10304000D2D16B017C0120E030E0A9010E9456D36F
:1030500087FF04C0F7FAF094F7F8F094E0911012AB
:1030600044E0E49FF0011124E45DFE4F20813181B2
:1030700042815381C701B6010E9408CE20E030E0B2
:103080004AE754E40E9456D3181604F58092FC11C6
:103090009092FD11A092FE11B092FF11E1ECF4E1CB
:1030A00084918F010F5F1F4F882321F00E94A63863
:1030B000F801F6CFE3E0F1E084918F010F5F1F4F3D
:1030C000882321F00E94A638F801F6CF60911D01F7
:1030D00070911E01072E000C880B990B0E94A9CD40
:1030E00020910001309101014091020150910301B2
:1030F0000E9408CE2AE037ED43E25CE30E9408CE4E
:1031000068A379A38AA39BA3E090101219821A8264
:103110001B821C82CE0101966C018E01005E1F4F46
:103120002CEE31E148EE51E164EE71E180EE91E187
:103130000E942A770E9444380C94CC2A80E50E9491
:103140002738882329F00E9469376B017C0103C06E
:10315000C12CD12C760183E50E942738882361F0A9
:103160000E94AD3720E030E04AE754E40E9408CEE8
:103170000E94CFD26B017C010E945A988091AF04CB
:10318000811105C060E08DE391E00E94B6960E9437
:103190008B90C60ED71EE81EF91E0E948B90DC0194
:1031A000CB018C199D09AE09BF09B7FD02C00C9473
:1031B000CC2A80E00E9424BEF0CF0E949884811126
:1031C0000C94CC2A80E090E0A0E2B1E489839A8359
:1031D000AB83BC838D839E83AF83B88789879A87AF
:1031E000AB87BC8780E50E942738882319F00E94AE
:1031F000793701C060E068A3BE016F5F7F4FCE01E9
:1032000080960E94F69B0C94CC2A8091CD0F8770FB
:10321000873071F48FE40E942738882319F00E94C8
:103220009D3703C08FE40E94E03781110C94CC2AB3
:103230000E945A988091000190910101A091020191
:10324000B09103018093520290935302A0935402D1
:10325000B093550280911D0190911E0190935102EF
:103260008093500284E690E090931E0180931D01AC
:1032700011E01093CC0F88E50E94E0378CAF89E510
:103280000E94E037282E8AE50E94E03721968FAF12
:1032900021979CAD911105C0211005C0382E312613
:1032A00007C0211002C0312C03C021963FAC2197EA
:1032B0000E943A3882E50E9427388823A1F10E94B3
:1032C000AD376B017C0120E030E0A9010E94A2CD66
:1032D000882349F1311006C0ACADA11103C02220F2
:1032E00009F420C1C092E811D092E911E092EA11EC
:1032F000F092EB112091F8113091F9114091FA11EF
:103300005091FB11C701B6010E9456D318165CF408
:1033100019821A821B821C82BE016F5F7F4F88EE6A
:1033200091E10E94793531100EC0ECADE11103C07E
:103330002110F3C0F7C0211006C080E00E948A75FA
:103340003320B1F3EAC01092F4111092F5111092EB
:10335000F6111092F7111092F0111092F1111092D3
:10336000F2111092F3110E944D36E9EBFAE124912B
:1033700023962FAF2397EDEAFAE185909590A590DB
:10338000B490E1EBFAE1C590D590E590F490A701F7
:103390009601C501B4010E9456D318162CF4A5015C
:1033A0009401C701B60104C0A7019601C501B4018B
:1033B0000E9456D22B013C01E0E7FAE185919591FC
:1033C000A591B4918CAB9DABAEABBFABECE6FAE193
:1033D000259135914591549128AF39AF4AAF5BAFF4
:1033E0009C01AD0168AD79AD8AAD9BAD0E94A2CDC7
:1033F00087FD09C01CA90DA93EA922963FAF2297BF
:103400004FA94CAB08C018AD09AD5AAD22965FAFBD
:1034100022978BAD8CABA3019201C301B2010E9434
:1034200008CE20E030E040E85FE30E94D3D10E9464
:1034300094D39B01AC01612F702F22968FAD229700
:103440009CA90E9408CE69837A838B839C83EAEBD4
:10345000FAE114912091F8113091F9114091FA118B
:103460005091FB112CAB3DAB4EAB5FAB20E030E09D
:1034700040EC5FE3C701B6010E9408CE6B017C01FE
:10348000612F110F770B880B990B0E94A9CD9B011F
:10349000AC01C701B6010E9408CE2B013C0120E01F
:1034A00030E040EC5FE3C501B4010E9408CE6B013F
:1034B0007C0123963FAD2397632F330F770B880B47
:1034C000990B0E94A9CD9B01AC01C701B6010E94D6
:1034D00008CEAE014F5F5F4F6A01ECA8FDA80EA9B0
:1034E0001FA9A30192010E947E340E94139D109295
:1034F000F4111092F5111092F6111092F71110922A
:10350000F0111092F1111092F2111092F31131108A
:1035100014CFBCADB11111CF0BCF81E00E948A75E1
:10352000311005C021965FAD2197552319F082E037
:103530000E948A750E944D368091CB0F8093CC0FEC
:103540008091520290915302A0915402B091550281
:103550008093000190930101A0930201B0930301B5
:10356000809150029091510290931E0180931D0111
:1035700083E080932B010E94AF3D0C94CC2A1092E3
:103580005A020C94CC2A10935A020C94CC2A0E9412
:10359000AD372B013C01133059F0F701E45EF74FD2
:1035A00020813181428153810E94D2D12B013C0183
:1035B000F701E051FE4E2081318142815381C301E8
:1035C000B2010E94D2D14B015C012DEB37E346E8FA
:1035D00055EB0E9456D387FD1BC02DEB37E346E821
:1035E00055E3C501B4010E94A2CD18168CF01F5FEF
:1035F000B4E0CB0ED11CE4E0EE0EF11C143039F136
:10360000D1018D911D010E942738882381F3BFCFFE
:10361000133051F44092FC115092FD116092FE1152
:103620007092FF1101E0E3CFA5019401F6016081E2
:103630007181828193810E94D3D1D6016D937D9354
:103640008D939C931397812F0E949835D0CF0023A0
:1036500021F08CEF91E10E943A850E94AF3D0C94DD
:10366000CC2A0E94A3AF0C94CC2A80914D12909149
:103670004E128C36910509F4C8C40CF08EC08E3100
:10368000910509F4EBC294F58631910509F407C25E
:10369000ACF48131910509F4B0C12CF4029708F41F
:1036A00032C10C94832A8431910509F4B1C10CF024
:1036B000F2C1429709F4C3C50C94832A8A3191055B
:1036C00009F43CC25CF48831910509F4FFC10CF0A7
:1036D00027C2E0914B12F0914C12EBC18C31910555
:1036E00009F4B2C20CF438C20C94CC2A823591058C
:1036F00009F49CC58CF58B34910509F43CC464F441
:103700008032910509F445C30CF482C389349105D4
:1037100009F424C40C94832A8D34910509F433C42C
:103720000CF42DC48135910511F00C94832A0E946C
:10373000D7440E9472991092C40A1092C30A68EE8C
:1037400073E080E090E00E94E79560E08EE792E011
:103750000E94B6960C94CC2A8836910509F417C4B9
:10376000ACF48435910509F46AC50CF463C58C3555
:10377000910511F00C94832AE2E4CE2EE1E0DE2ED6
:10378000F9E9EF2EFFE0FF2E10E08EC58A36910595
:1037900009F49DC40CF441C4B8C48C3D910511F4E6
:1037A0000C94BF230CF051C08737910509F46BC608
:1037B00014F58237910509F4F7C57CF48E3691052E
:1037C00009F410C40CF444C48037910511F00C9432
:1037D000832A82E392E00E9495768537910509F469
:1037E000F5C50CF004C68337910511F00C94832ABB
:1037F000E0E9F2E0DFC5893C910509F4A8C674F45C
:103800008C38910509F43AC48E3B910509F44EC4F5
:103810008D37910511F00C94832A89C48C3C910555
:1038200009F4CDC68D3C910509F43EC78B3C91054A
:1038300011F00C94832A43E9E42E4AE0F42E02E4CA
:1038400011E054E0D52ED00EABC68A39F1E09F07C7
:1038500009F4DFC364F58D3231E0930711F40C9461
:10386000652494F4823251E0950711F40C942F24CE
:103870008C32A1E09A0711F40C943C248D3D910503
:1038800011F00C94832A88C78336B1E09B0711F4AA
:103890000C945A288039E1E09E0711F40C947328A7
:1038A0008F32914011F00C94832A0C940625873FA7
:1038B00021E0920711F40C947C2894F4853F41E0B8
:1038C000940711F40C94762814F00C947928843F12
:1038D000914011F00C94832A0E9470A60C94CC2A7B
:1038E0008835B2E09B0711F40C94AA28873EE3E0E8
:1038F0009E0711F40C946E2A883F914011F00C94AD
:10390000832A0C948728A0904B12B0904C1280E52B
:103910000E942738882359F00E9469376B017C0187
:1039200011E0672B682B692B31F410E004C010E024
:10393000C12CD12C760183E50E942738882311F40D
:103940000C94D12A0E94AD3720E030E04AE754E4DD
:103950000E9408CE0E94CFD26B017C0111110BC0D6
:10396000672B682B692B39F4A114B10421F0D50120
:103970008C91811102C010E001C011E00E945A98A0
:10398000112329F061E0C5010E94F09605C060E0B6
:1039900086E491E00E94B69683E08093DF1181E097
:1039A0008093DE11C114D104E104F104F1F00E940E
:1039B0008B90C60ED71EE81EF91E0E948B90DC016C
:1039C000CB018C199D09AE09BF09B7FD06C00E9445
:1039D000FB5E1092DE110C94CC2A8091DE118823BC
:1039E000B1F380E00E9424BEE8CF8091DE118823ED
:1039F00071F380E00E9424BEF8CF60E089E591E099
:103A00000E94B6965E985E9815985E980C94CC2AA3
:103A1000E1E7F1E084918F010F5F1F4F882321F0D0
:103A20000E94A638F801F6CF1092CD0740E050E092
:103A3000BA0180E895E00E94F7BB8BE1E0E8F5E091
:103A4000DE01159601900D928A95E1F780917E0531
:103A500090917F059C838B8388E691E09A8389838C
:103A600040E050E0BE016F5F7F4F80E090E00E9439
:103A7000C75ACE0101960E948D76E2E6F1E084916C
:103A80008F010F5F1F4F882311F40C94CC2A0E94E2
:103A9000A638F801F4CF0E948CAB0C94CC2A10927B
:103AA0005005109251050C94CC2A803209F41082F2
:103AB000319680818111F9CF40E061E080914B1215
:103AC00090914C120E94F25C0C94CC2A80E090E021
:103AD000A8E4B2E489839A83AB83BC8318A219A2B9
:103AE0001AA21BA21CA21DA21EA21FA28091C60484
:103AF000882359F020E0AE014F5F5F4FBE01605E4A
:103B00007F4FCE0184960E9402AE8091510588239A
:103B100019F081E0809350050E9429490C94CC2A29
:103B2000109250050E94634982E891E09093D6116B
:103B30008093D5110E94ED350C94CC2A80915105CB
:103B4000882311F40C94CC2A83E50E942738811134
:103B50000C94D62A0C94CC2A83E40E94E037882364
:103B600099F1E4EBF1E084918F010F5F1F4F8823FF
:103B700021F00E94A638F801F6CF80911B07882318
:103B800091F0BE016F5F7F4F88E197E00E949E6ECB
:103B90008E010F5F1F4FF80181918F01882379F00B
:103BA0000E94A638F8CFE7E8F1E084918F010F5F1B
:103BB0001F4F882321F00E94A638F801F6CF8AE033
:103BC0000E94A6380C94CC2A80915105882371F16B
:103BD00080915005882351F1E1E9F1E084918F0152
:103BE0000F5F1F4F882321F00E94A638F801F6CFFF
:103BF0006091C9077091CA078091CB079091CC075B
:103C00004AE00E94743C8FE20E94A6386091C5078A
:103C10007091C6078091C7079091C8074AE00E943B
:103C2000743C8AE00E94A6380C94CC2AE3EAF1E0C6
:103C300084918F010F5F1F4F882311F40C94CC2ABD
:103C40000E94A638F801F4CF40E060E080914B126A
:103C500090914C120E94F25C0C94CC2A80915105F8
:103C6000882311F40C94CC2A88E197E00E94B4BB1D
:103C700088E197E00E94EE6E10924F0510924E057B
:103C800000914B1210914C1280915105882311F430
:103C90000C94CC2A0E94BA58B801CE0180960E949A
:103CA00002588C01892B11F40C94CC2A68A179A1BB
:103CB0006115710511F06C5F7F4F19821C8222E043
:103CC000A801CE0101960E949874811102C0F12CC6
:103CD0001EC0CE0101960E9470578823C1F36D85E6
:103CE0007E858F85988941E00E9499B9882379F370
:103CF000E98920E2E29FF0011124EA5BF74F309757
:103D000031F385EE80831C820E9459B9F82ECE01D2
:103D100001960E943438FF2011F1E3ECF1E0849128
:103D20007F013FEFE31AF30A882321F00E94A638AF
:103D3000F701F5CFD8018D918D01882319F00E94EC
:103D4000A638F8CF8AE00E94A6381092C9071092D0
:103D5000CA071092CB071092CC070C94CC2AE1ED45
:103D6000F1E084917F01BFEFEB1AFB0A882321F079
:103D70000E94A638F701F5CFF80181918F018823C1
:103D800019F00E94A638F8CF8EE20E94A6380C9453
:103D9000CC2A8091500581110E945A98809151053A
:103DA000882311F40C94CC2A80E50E9427388823BC
:103DB00019F00E949D3703C080E50E94E037182F5C
:103DC000482F61E080914B1290914C120E94F25C5E
:103DD00083E50E942738882381F00E947937AB0160
:103DE000BC014093C9075093CA076093CB077093F7
:103DF000CC0788E197E00E94F7BB809151058823AA
:103E000019F081E08093500511110C94CC2A84CED6
:103E10000E94F5482CE3C22ED12CE12CF12CA701F5
:103E200096010E9496D1762E672ECA01B901A7018C
:103E300096010E9496D16B017C01CA01B90128E16B
:103E400030E040E050E00E9496D14B015C01C90196
:103E50006DE671E00E94DBD38E010F5F1F4F61158D
:103E6000710599F06F927F92DF92CF929F928F921D
:103E70009F938F937F936F9381E192E09F938F93B2
:103E80001F930F930E9439CD12C00097B1F06F922B
:103E90007F92DF92CF929F928F929F938F9381E038
:103EA00092E09F938F931F930F930E9439CD0FB68B
:103EB000F894DEBF0FBECDBF36C081149104A104BB
:103EC000B10479F06F927F92DF92CF929F928F929E
:103ED00085EF91E09F938F931F930F930E9439CDAD
:103EE000E6CFC114D104E104F10469F06F927F922E
:103EF000DF92CF928DEE91E09F938F931F930F935C
:103F00000E9439CDD4CF6F927F9289EE91E09F933A
:103F10008F931F930F930E9439CD0F900F900F90A6
:103F20000F900F900F9060E0C8010E94F096E1ECB6
:103F3000F4E184917F01BFEFEB1AFB0A882321F0A3
:103F40000E94A638F701F5CFB80185E292E00E9401
:103F50006A978AE00E94A6380C94CC2A809150057A
:103F600081110C94CC2A80E50E94E03781110C94D9
:103F7000E72A0C94CC2A0E9429490C94CC2A0E944E
:103F800063490C94CC2A0E9478490C94CC2A88E688
:103F900090E00E94DC3C81110C94CC2A83E50E94C5
:103FA0002738882311F40C94CC2A0E94AD370E9444
:103FB000C8D2709312126093111280E00E948C4458
:103FC0000E94AD3720E030E040E752E40E94A2CDED
:103FD000181614F40C94CC2A0E9478490E94FB5EB7
:103FE0000C94CC2A8EE40E942738882311F40C9478
:103FF000CC2A0E9479376093A9047093AA04809315
:10400000AB049093AC040C94CC2A10923B010C941A
:10401000CC2A0E9457360C94CC2A89E690E00E9464
:10402000DC3C811111C0EBE3F2E084918F010F5F62
:104030001F4F882321F00E94A638F801F6CF0E9476
:1040400012428AE00E94A6381092DF110C94603070
:104050008DE690E00E94DC3C81110C94CC2A83E533
:104060000E9427388CAB81110C94F22A82E50E94C1
:10407000273881110C94F22A0C94CC2A83E50E94F3
:104080002738882311F40C94CC2A0E94AD370E9463
:10409000C8D26639710514F066E970E07093CA11F0
:1040A0006093C9110E9441440C94CC2A83E50E947C
:1040B000273824968FAF249781110C94A42C82E585
:1040C0000E94273881110C94A42C0C94CC2A80E5F2
:1040D0000E942738811106C083E50E942738882373
:1040E00061F006C00E94893781110C94CC2AF4CF6C
:1040F0000E9479376F3F710510F06FEF70E0709399
:10410000C40A6093C30A0C94CC2A80E50E94273825
:10411000811106C01092C40A1092C30A0C94CC2AD2
:104120000E947937672B11F00C94CC2AF3CF8CE4E2
:104130000E94E037882381F00E94AD376B017C013B
:1041400020E030E0A9010E9456D387FF0AC0F7FAA9
:10415000F094F7F8F09405C0C12CD12CE12CA0E428
:10416000FA2EF7FAF094F7F8F094CCA2DDA2EEA2C2
:10417000FFA280E090E0A0E2B1E489839A83AB8360
:10418000BC838D839E83AF83B88789879A87AB87EB
:10419000BC8788E50E942738882379F088E50E944B
:1041A0002738882319F00E94AD3703C060E070E023
:1041B000CB0169837A838B839C8389E50E942738AE
:1041C000882379F089E50E942738882319F00E9416
:1041D000AD3703C060E070E0CB016D837E838F83D9
:1041E00098878AE50E942738882379F08AE50E941B
:1041F0002738882319F00E94AD3703C060E070E0D3
:10420000CB0169877A878B879C8718A219A21AA28B
:104210001BA220E0AE01405E5F4FBE016F5F7F4F8B
:10422000CE0184960E94B0380C94CC2A1092590288
:104230000C94CC2A81E0809359020C94CC2A83E51B
:104240000E9427388823A1F00E94AD3720E030E09B
:104250004AE754E40E9408CE0E94CFD260933E0108
:1042600070933F0180934001909341010C94CC2ABC
:1042700088E50E94E03781110C945C2E89E50E944C
:10428000E03781110C945C2E8AE50E94E0378111A1
:104290000C945C2E85E40E94E03781110C945C2E16
:1042A0000E9472990C94CC2AD6018D916D010E94C6
:1042B000E037882309F46DC0133009F063C00E9411
:1042C000AD374B015C0120E030E040EA51E40E9450
:1042D000A2CD87FF4EC0A50194016091A50F7091FA
:1042E000A60F8091A70F9091A80F0E9456D22B0184
:1042F0003C019B01AC0160916F0A7091700A809142
:10430000710A9091720A0E9408CE60936F0A7093AE
:10431000700A8093710A9093720AA30192016091CE
:104320009F0A7091A00A8091A10A9091A20A0E940E
:1043300008CE60939F0A7093A00A8093A10A90937D
:10434000A20A60917F0A7091800A8091810A9091FF
:10435000820A0E94A7CDA30192010E9408CE0E946A
:10436000CFD260937F0A7093800A8093810A9093E2
:10437000820A8092A50F9092A60FA092A70FB092EA
:10438000A80F07C00E94AD37F70160837183828355
:1043900093831F5FF4E0EF0EF11C143009F084CF1B
:1043A0000E9446990C94CC2A0E945A980E94AF3DD4
:1043B0000C94CC2A84918F010F5F1F4F882311F436
:1043C0000C94CC2A0E94A638F801F4CF80914B12AD
:1043D00090914C12DC012C91222329F060E00E9484
:1043E000F0960C94CC2A0E94FB5E0C94CC2A00918F
:1043F0004B1210914C1283E0D12C40E08150E1F03F
:10440000F8019081292F2B7F2134C1F7218121339D
:10441000A9F7913421F0953421F441E002C0DD2464
:10442000D39498012E5F3F4F89012F5F3F4FD801F2
:104430009C919032C9F3E2CF442369F0E1ECF4E1BE
:1044400084917F01BFEFEB1AFB0A882321F00E94C1
:10445000A638F701F5CFDD2069F0EBE0F3E08491B9
:104460007F012FEFE21AF20A882321F00E94A6387A
:10447000F701F5CFD8018D918D01882309F49FCBE9
:104480000E94A638F7CFE7E2F3E084918F010F5F37
:104490001F4F882321F00E94A638F801F6CFEFE1E4
:1044A000F3E084918F010F5F1F4F882321F00E945A
:1044B000A638F801F6CF329903C00CE012E002C032
:1044C00001E112E0F80181918F01882319F00E9427
:1044D000A638F8CF8AE00E94A638E7E1F3E084919D
:1044E0008F010F5F1F4F882321F00E94A638F8012B
:1044F000F6CF339903C00CE012E002C001E112E0F4
:10450000D8018D918D01882319F00E94A638F8CF2B
:104510008AE00E94A638EFE0F3E084918F010F5FFC
:104520001F4F882321F00E94A638F801F6CF349956
:1045300003C00CE012E002C001E112E0F801819139
:104540008F01882309F43BCB0E94A638F7CF61EA9C
:10455000E62E61E1F62E02E411E074E0D72ED00ED3
:10456000D8018D918D010E94E037882349F00E9487
:10457000AD370E94CFD2F70160837183828393832A
:10458000F4E0EF0EF11CD012EBCF0E9491970C9447
:10459000CC2AF4E0EF0EF11CD01611F40C94CC2AC6
:1045A000D8018D918D010E94E037882391F30E94FC
:1045B000AD37F7016083718382839383EACF83E50C
:1045C0000E9427388823A1F00E94AD3760938B0AA0
:1045D00070938C0A80938D0A90938E0A6093870A59
:1045E0007093880A8093890A90938A0A10E001C028
:1045F00011E080E50E942738882359F00E94AD37EA
:1046000060938B0A70938C0A80938D0A90938E0A24
:1046100010E082E50E942738882359F00E94AD37C8
:1046200060938F0A7093900A8093910A9093920AF4
:1046300010E084E50E942738882359F00E94AD37A6
:104640006093870A7093880A8093890A90938A0AF4
:10465000A3C7112309F4A0C740918B0A50918C0A7B
:1046600060918D0A70918E0A87E493E00E943497DE
:1046700040918F0A5091900A6091910A7091920A2C
:1046800084E493E00E9434974091870A5091880A0D
:104690006091890A70918A0A81E493E00E943497BC
:1046A0008AE00E94A63878C782E40E94E037882317
:1046B00051F00E9469376093A70A7093A80A80930B
:1046C000A90A9093AA0A83E50E94E037882351F053
:1046D0000E94AD376093BF0A7093C00A8093C10AED
:1046E0009093C20A84E50E94E037882351F00E942B
:1046F000AD376093BB0A7093BC0A8093BD0A909358
:10470000BE0A88E50E94E037882351F00E94AD3749
:104710006093630A7093640A8093650A9093660AB3
:1047200089E50E94E037882351F00E94AD376093FD
:10473000670A7093680A8093690A90936A0A8AE507
:104740000E94E037882351F00E94AD3760936B0AD6
:1047500070936C0A80936D0A90936E0A85E40E94B0
:10476000E037882309F418C70E94AD3760936F0AB9
:104770007093700A8093710A9093720A0DC783E553
:104780000E942738882309F407C70E94793770935D
:104790001E0160931D0100C78DED90E00E94DC3C7E
:1047A0008111FAC683E50E942738882381F10091A0
:1047B000FD0210E00E947937000F111FF801E55E3D
:1047C000FE4F718360838091FD0290E08C01000FA9
:1047D000111F000F111F045D1E4F880F991FFC0150
:1047E000E55EFE4F60817181072E000C880B990BEE
:1047F0000E94A9CD2AE037ED43E25CE30E9408CE97
:10480000D8016D937D938D939C931397C5C6E1EC6E
:10481000F4E184918F010F5F1F4F882321F00E94E4
:10482000A638F801F6CF85E40E94A6388091FD02F3
:10483000805D0E94A638E091FD02F0E0EE0FFF1FC0
:10484000E55EFE4F6081718187E593E00E9451979C
:1048500085E20E94A6388AE00E94A6389DC68AE5B5
:104860000E94273881110C94812E83E50E942738FD
:1048700081110C94812E90C683E50E9427388823ED
:1048800019F00E94793702C064E071E079A368A34F
:1048900080E50E942738882339F00E9479376938EB
:1048A000B3E17B0730F402C068EE73E07A8369837A
:1048B00004C088E893E19A838983BE01605E7F4FDC
:1048C000CE0101960E94F67667C685E40E942738DD
:1048D000811110C080E50E94E037882391F00E948A
:1048E000AD3760931712709318128093191290933A
:1048F0001A1207C00E948937882361F3E6EAF4E1BF
:104900006EC089E40E94E037882381F00E94AD37B1
:104910002CEA35EC47E25EE30E9408CE6093271252
:10492000709328128093291290932A1284E40E9493
:10493000E037882381F00E94AD372CEA35EC47E25E
:104940005EE30E9456D260931F12709320128093F0
:10495000211290932212E1ECF4E184918F010F5F18
:104960001F4F882321F00E94A638F801F6CF40910E
:104970001712509118126091191270911A1287E64D
:1049800093E00E9434972CEA35EC47E25EE36091B5
:104990002712709128128091291290912A120E9458
:1049A00056D2AB01BC0183E693E00E9434972CEA17
:1049B00035EC47E25EE360911F1270912012809106
:1049C0002112909122120E9408CEAB01BC018FE50A
:1049D00093E00E9434978AE00E94A638DDC5849156
:1049E0008F010F5F1F4F882321F00E94A638F80126
:1049F000F6CFEBE6F3E084918F010F5F1F4F882322
:104A000009F4CAC50E94A638F801F5CF85E40E94D2
:104A10002738882321F00E9479377B0102C0E12CDE
:104A2000F12C83E40E942738882331F00E947937E3
:104A300069966FAF699704C025E069962FAF6997B3
:104A400085E50E942738882319F00E949D3703C00E
:104A500085E50E94E037A5968FAFA597F7FC07C0C4
:104A6000812C912CF6E1AF2EF3E4BF2E06C0812CF1
:104A7000912CECE8AE2EE2E4BE2E83E50E942738AE
:104A8000882321F00E94AD374B015C01E114F10451
:104A900011F41092FD021092DF110E948B902B01F5
:104AA0003C01EE2069F0ECEEF4E084918F010F5FA1
:104AB0001F4F882309F470C50E94A638F801F5CF6E
:104AC000E6E1F5E084917F013FEFE31AF30A8823E2
:104AD00021F00E94A638F701F5CFC501B4010E946C
:104AE000C8D2072E000C880B990B0E94A9CD6CAF81
:104AF00021967FAF219722968FAF229723969FAF63
:104B00002397D301C20180549B42AE4FBF4FE19621
:104B10008CAF9DAFAEAFBFAFE1970E94D7448FE798
:104B20008093FB0281E080933B01A0964CAE5DAE8A
:104B30006EAE7FAEA097A9964CAE5DAE6EAE7FAE68
:104B4000A9976C961FAE6C97AD961CAE1DAE1EAEAF
:104B50001FAEAD9726961FAE269790E42A969FAF7C
:104B60002A97ACE12B96AFAF2B97B6E42C96BFAF4C
:104B70002C972D961FAE2D972E961FAE2E972F9603
:104B80001FAE2F9760961FAE609768961CAE1DAE45
:104B90001EAE1FAE689764961CAE1DAE1EAE1FAE55
:104BA0006497C12CD12C76012FE730E040E050E033
:104BB00028AF39AF4AAF5BAF7FE7872E912CA12C8E
:104BC000B12CA4961CAE1DAE1EAE1FAEA49731E054
:104BD0006B963FAF6B9725961FAE1EAE259710E0E4
:104BE000212C312C00E069964FAD6997042E000C02
:104BF000550B6A965FAF4EAF6A9780913B01882351
:104C000009F407C10E948B906CAB7DAB8EAB9FAB60
:104C10008091FA02882309F4DAC00E94F0461091CC
:104C2000C50A2090C60A3090C70A0091C80A212FF1
:104C3000322D432D502F2D966FAD2D972E967FAD93
:104C40002E972F968FAD2F9760969FAD60970E94FD
:104C5000A2CD87FF0CC02D961FAF2D972E962FAE9D
:104C60002E972F963FAE2F9760960FAF6097212F0C
:104C7000322D432D502F26966FAD26972A967FAD65
:104C80002A972B968FAD2B972C969FAD2C970E9431
:104C900056D3181664F426961FAF26972A962FAE81
:104CA0002A972B963FAE2B972C960FAF2C976B968F
:104CB0005FAD6B972CAD21963FAD219722964FADFE
:104CC0002297552309F460C023965FAD2397612F87
:104CD000722D832D902F0E9456D318160CF077C09A
:104CE0008CA99DA9AEA9BFA984199509A609B709E0
:104CF000E7968CAF9DAFAEAFBFAFE79788589341B3
:104D0000A109B109B7FD63C0D501C40128AD39AD12
:104D10004AAD5BAD821B930BA40BB50BB595A79564
:104D2000979587958093FB02E7968CAD9DADAEADD0
:104D3000BFADE797A4968CAF9DAFAEAFBFAFA497C2
:104D40009CAD2D969FAF2D972196AFAD21972E96B6
:104D5000AFAF2E972296BFAD22972F96BFAF2F975A
:104D60002396EFAD23976096EFAF60972CA93DA9EE
:104D70004EA95FA9A0962CAF3DAF4EAF5FAFA097F5
:104D80006B961FAE6B9723C023965FAD2397612F61
:104D9000722D832D902F0E94A2CD87FF18C08CA961
:104DA0009DA9AEA9BFA9A0962CAD3DAD4EAD5FADFE
:104DB000A097821B930BA40BB50BAC01BD01485807
:104DC00053416109710977FD02C00C94BC2E20E0AB
:104DD00030E040EA51E46CAD21967FAD21972296F8
:104DE0008FAD229723969FAD23970E94D3D19B012D
:104DF000AC01612F722D832D902F0E9456D318166F
:104E00007CF4E8E7F4E084918F010F5F1F4F81117C
:104E100003C00E94D744C0C30E94A638F801F3CF54
:104E20008CA99DA9AEA9BFA9A9962CAD3DAD4EAD4B
:104E30005FADA997821B930BA40BB50BB7FD9DC06B
:104E40000E9412428AE00E94A6388CA99DA9AEA9B0
:104E5000BFA98053984FAF4FBF4FA9968CAF9DAF5E
:104E6000AEAFBFAFA9976C969FAD6C97911164C020
:104E7000AD962CAD3DAD4EAD5FADAD97612F722DB2
:104E8000832D902F0E9456D318160CF040C020E0BE
:104E900030E040E850E4612F722D832D902F0E9466
:104EA000D3D1AD966CAF7DAF8EAF9FAFAD972CA930
:104EB0003DA94EA95FA920543B424E4F5F4FE1965A
:104EC0002CAF3DAF4EAF5FAFE19720E030E040E068
:104ED00051E46CAD21967FAD219722968FAD22973C
:104EE00023969FAD23970E94D2D19B01AC0181E014
:104EF0006C968FAF6C97612F722D832D902F0E942F
:104F000056D31816D4F16C961FAE6C9736C08CA988
:104F10009DA9AEA9BFA9E1962CAD3DAD4EAD5FAD4B
:104F2000E197821B930BA40BB50BB7FD26C047E599
:104F300054E069E674E01EC020E030E040EA51E44D
:104F40006CAD21967FAD219722968FAD2297239647
:104F50009FAD23970E94D2D19B01AC01612F722D8E
:104F6000832D902F0E94A2CD87FF07C044E354E019
:104F700067E474E080E00E9411478CA99DA9AEA966
:104F8000BFA9880F991FAA1FBB1FA0962CAD3DADCE
:104F90004EAD5FADA097821B930BA40BB50B84198C
:104FA0009509A609B70981389F44A241B10568F067
:104FB000E6E1F4E084918F010F5F1F4F882309F42D
:104FC00028CF0E94A638F801F5CF25964EAD5FADEB
:104FD00025976A968EAD9FAD6A97841795070CF05A
:104FE00066C0E9EBF3E084918F010F5F1F4F8823C8
:104FF00021F00E94A638F801F6CFB701A60185EA94
:1050000093E00E9434978AE00E94A63864964CADE3
:105010005DAD6EAD7FAD649781E993E00E943497FA
:105020008AE00E94A63868964CAD5DAD6EAD7FAD4E
:1050300068978DE793E00E9434978AE00E94A63833
:10504000A5969FADA597992309F4A6C2C092171201
:10505000D0921812E0921912F0921A122CEA35EC42
:1050600047E25EE364966CAD7DAD8EAD9FAD649717
:105070000E9408CE60932712709328128093291201
:1050800090932A122CEA35EC47E25EE368966CAD09
:105090007DAD8EAD9FAD68970E9456D260931F1272
:1050A00070932012809321129093221275C20E9455
:1050B000A38CA3CDE6EAF4E184918F010F5F1F4F2B
:1050C000882321F00E94A638F801F6CFEAE2F5E045
:1050D00084918F010F5F1F4F882309F45DC20E94E6
:1050E000A638F801F5CF0E945A9856C20E94D0A067
:1050F00053C20E94B99F50C283E50E94E0378823C3
:1051000019F00E949D3781270E941E9D45C281E0B3
:10511000809398110E94FFA010929811882309F49F
:105120003BC2E1ECF4E184918F010F5F1F4F8823B4
:1051300021F00E94A638F801F6CFE9E3F5E084916A
:105140008F010F5F1F4F882309F426C20E94A638E3
:10515000F801F5CF80E090E0A0E2B1E489839A8382
:10516000AB83BC838D839E83AF83B88789879A87FF
:10517000AB87BC8788E592E00E94DC3C81110CC2C1
:105180006091FD020E9459AD85E40E94E0378823BA
:1051900081F00E94AD376B017C0120E030E0A90175
:1051A0000E9456D387FF0AC0F7FAF094F7F8F094FC
:1051B00005C0C12CD12CE12C80E4F82EF7FAF09434
:1051C000F7F8F094C8AAD9AAEAAAFBAA8AE50E942D
:1051D0002738882379F08AE50E942738882319F038
:1051E0000E94AD3703C060E070E0CB0169877A8729
:1051F0008B879C8788E50E942738882379F088E58B
:105200000E942738882319F00E94AD3703C060E060
:1052100070E0CB0169837A838B839C8389E50E944C
:105220002738882379F089E50E942738882319F0E8
:105230000E94AD3703C060E070E0CB016D837E83D8
:105240008F83988785E50E94E037882329F00E94A4
:10525000AD376B017C010CC0E0911012A4E0EA9F15
:10526000F0011124E356FE4EC080D180E280F3802D
:1052700020E030E0A901C701B6010E9456D387FFA4
:1052800004C0F7FAF094F7F8F094F7FAF094F7F80E
:10529000F094CCA6DDA6EEA6FFA618A619A61AA61F
:1052A0001BA68CE40E94E037882329F00E94AD37CA
:1052B0006B017C010CC0E0911012B4E0EB9FF00197
:1052C0001124E756FE4EC080D180E280F38020E0BA
:1052D00030E0A901C701B6010E9456D387FF04C080
:1052E000F7FAF094F7F8F094CCA2DDA2EEA2FFA2B8
:1052F00082E40E942738882321F00E947937162FF4
:1053000001C01AE00091CA0F21E0AE01445D5F4F79
:10531000BE016F5F7F4FCE01C0960E94B0388823D8
:1053200009F4D6C06091101282E00E9459ADE1EC00
:10533000F4E184917F012FEFE21AF20A882321F031
:105340000E94A638F701F5CFE3E8F5E084917F01EC
:105350003FEFE31AF30A882321F00E94A638F701F1
:10536000F5CF61E0812F0E94F3330E948B90DC0126
:10537000CB01805A9541AF4FBF4F8093DA11909384
:10538000DB11A093DC11B093DD111092AE0483E029
:105390008093DF1181E08093DE11DD24D39480912E
:1053A000DE11882309F47AC060E0812F0E94F33374
:1053B0008091AE04882309F46DC06091101288E0DA
:1053C0000E9459ADE1ECF4E184917F014FEFE41AC2
:1053D000F40A882321F00E94A638F701F5CFE6E60B
:1053E000F5E084917F015FEFE51AF50A882321F04B
:1053F0000E94A638F701F5CF8091DE11882321F0B5
:1054000081E00E9424BEF8CF1092DA111092DB11D5
:105410001092DC111092DD111092AE040E948C44A7
:105420000E9492AD6091101282E00E9459ADE1ECB1
:10543000F4E184917F019FEFE91AF90A882321F0B2
:105440000E94A638F701F5CFE4E4F5E084917F01EE
:10545000AFEFEA1AFA0A811119C00E948B90DC01A1
:10546000CB01805A9541AF4FBF4F8093DA11909393
:10547000DB11A093DC11B093DD111092AE04D09239
:10548000DE1161E0812F0E94F33304C00E94A63830
:10549000F701DCCF81E00E9424BE81CF81E08093C0
:1054A000DF1180E090E0A8E4B2E488A399A3AAA366
:1054B000BBA38091C604882359F0212FAE01405E22
:1054C0005F4FBE016C5D7F4FCE0188960E9402AE99
:1054D000013009F061C00E9429495EC081E08093DB
:1054E0001A011092620A83E50E942738882339F056
:1054F0000E949D37811150C00E94B3BF4DC083E50B
:105500000E94E037F7CF0E94A3AF46C0F0904D1243
:105510000E945A98FF2029F1E1ECF4E184918F0177
:105520000F5F1F4F882321F00E94A638F801F6CFA5
:1055300084E50E94A6386F2D70E080E090E04AE09C
:105540000E94743C80E20E94A638E1ECF5E0849170
:105550008F010F5F1F4F8823F9F00E94A638F801D2
:10556000F6CF10921012E1ECF4E184918F010F5FFD
:105570001F4F882321F00E94A638F801F6CF6091D2
:10558000101270E08FEA95E00E9451978AE00E9425
:10559000A63802C00E94A3AF1092DF110E9496BFEE
:1055A0008FC511110C94BB1C0C94B41C0E9479374C
:1055B000AB01BC014093C9075093CA076093CB0766
:1055C0007093CC0788E197E00E94F7BBE5CF0E947B
:1055D0008937853620F084E68093E007DDCF80931D
:1055E000E007DACF0E94AD370E94C8D27093121242
:1055F0006093111280E00E948C440E94AD3720E03D
:1056000030E040E752E40E94A2CD18162CF00E9430
:1056100078490E94FB5E02C00E94294960911112E4
:1056200070911212072E000C880B990B0E94A9CDC5
:105630002091C50A3091C60A4091C70A5091C80A04
:105640000E9456D3181634F0ECA9E11108C082E488
:1056500092E002C08FE492E060E00E94B69681E0A2
:1056600080933B011092DF111CAE1DAE1EAE1FAE2B
:1056700029961CAE1DAE1EAE1FAE299718AE2A96F7
:105680001FAE2A97FCE32B96FFAF2B972CE12C96AD
:105690002FAF2C9736E42D963FAF2D97C12CD12CF0
:1056A00000E8E02E8FEBF82E812C912C54016091B4
:1056B000111270911212072E000C880B990B0E9488
:1056C000A9CD162F072F782E692E262F372F482F7A
:1056D000592FB601C7010E94A2CD8823C1F02091A5
:1056E000C50A3091C60A4091C70A5091C80A612F75
:1056F000702F872D962D0E94A2CD881F8827881F86
:1057000088AF4CA9442339F0882329F0B0C11C2D5F
:105710000D2D7E2C6F2C0E948B906B017C01DC0187
:10572000CB0129962CAD3DAD4EAD5FAD2997821BC7
:10573000930BA40BB50BB7FD3DC0D701C601885133
:105740009C4FAF4FBF4F29968CAF9DAFAEAFBFAF51
:1057500029970E941242EEE3F2E084912F019FEF1D
:10576000491A590A882321F00E94A638F201F5CF80
:1057700081149104A104B104B9F0D501C401885782
:105780009C4EAF4FBF4FBC01CD016C197D098E09F6
:105790009F0928EE33E040E050E00E9496D1CA0114
:1057A000B9010E941E3D03C08FE30E94A6388AE023
:1057B0000E94A63880E00E9424BE0E948B906093D5
:1057C000D2127093D3128093D4129093D512A091D9
:1057D000C50A2196AFAF2197B091C60A2296BFAFF6
:1057E0002297E091C70A2396EFAF2397F091C80A5A
:1057F0002496FFAF24979D01AF01612F702F872D55
:10580000962D0E94D2D11B012C0120E030E0A9018D
:105810000E9456D387FF04C057FA509457F850940B
:1058200081149104A104B10459F420E030E040E86F
:105830005FE3C201B1010E94A2CD87FF0DC00AC083
:1058400020E030E040E450E4C201B1010E9456D3B0
:10585000181614F44601570128AD222309F458C044
:105860008CAD9DADAEADBFAD892B8A2B8B2B61F07E
:10587000D701C6012CAD3DAD4EAD5FAD821B930B84
:10588000A40BB50BB7FD44C021962FAD21972296EE
:105890003FAD229723964FAD239724965FAD249773
:1058A0002A966FAD2A972B967FAD2B972C968FADAE
:1058B0002C972D969FAD2D970E94D2D120E030E0FD
:1058C00040EC5FE30E94A2CD87FDD1C0D701C601A5
:1058D000805A9541AF4FBF4F8CAF9DAFAEAFBFAFBA
:1058E00021969FAD21972A969FAF2A972296AFAD1A
:1058F00022972B96AFAF2B972396BFAD23972C966D
:10590000BFAF2C972496EFAD24972D96EFAF2D9730
:1059100080913B01882309F4AAC081149104A10459
:10592000B10429F4C12ED02EE72CF62CC0CEF8E815
:10593000CF1AF3E1DF0AE108F108C818D908EA082C
:10594000FB08F7FE94C0EECF0E94AD370E94C8D28C
:10595000663971050CF0ADC17093CA116093C9111D
:105960000E9441440E94AD3720E030E040EA50E41C
:105970000E9456D3181614F40E9429496091C91147
:105980007091CA11072E000C880B990B0E94A9CDAB
:105990002091DC073091DD074091DE075091DF0751
:1059A0000E9456D318160CF46AC080E692E060E0BC
:1059B0000E94B69681E080933B011092DF118091A6
:1059C00010128093FD0218AE19AE1AAE1BAE2996C6
:1059D0001CAE1DAE1EAE1FAE29971CAA2A961FAE86
:1059E0002A972CE32B962FAF2B973CE12C963FAFB9
:1059F0002C9746E42D964FAF2D97C12CD12CB0E8B3
:105A0000EB2E1FEBF12E812C912C54016091C911CA
:105A10007091CA11072E000C880B990B0E94A9CD1A
:105A2000162F072F782E692E262F372F482F592F04
:105A3000B601C7010E94A2CD882321F12091DC0785
:105A40003091DD074091DE075091DF07612F702F05
:105A5000872D962D0E94A2CD881F8827881F8CAB8A
:105A600024965FAD2497552389F0882379F080919F
:105A70003B01882309F490CD0E94FB5E8DCD8FE61B
:105A800092E095CF1C2D0D2D7E2C6F2C0E948B90BB
:105A90006B017C01DC01CB0129962CAD3DAD4EADF7
:105AA0005FAD2997821B930BA40BB50BB7FD3DC0CF
:105AB000D701C60188519C4FAF4FBF4F29968CAF7D
:105AC0009DAFAEAFBFAF29970E941242ECE5F2E066
:105AD00084912F019FEF491A590A882321F00E94CF
